:02000002D0002C
:1040000000400D0084830D00000006000C00050137
:084010000401BD0B00000000DB
:04401800A4790D007A
:1040200009480A49884208B505D0094A824202D0A7
:10403000121A03F0D3FB0748074A0021121A03F0B3
:10404000DBFB014808BD00BF1CE30320E4820D0038
:1040500094E3032094E30320F0E7032070B5074EB8
:10406000074C01F0C3FEA41BA4080025A54200D103
:1040700070BD56F8043B98470135F7E7B0820D0054
:10408000D4820D0000F06CBC08B500F09DFEBDE8C8
:10409000084001F06DBE01F0F1BB01F0EFBB01F093
:1040A000F5BB0078B0FA80F0400970470123037037
:1040B00070470000014B01221A7070471CE3032077
:1040C000014B01221A70704724E3032037B50446E0
:1040D0000846019103F0C6FB6368A268451CE81816
:1040E000904208D8206801992A46184403F076FBCC
:1040F00060682844606003B030BD000038B5846952
:104100000A4B036005467CB16368013B63605BB9A1
:10411000236820469B689847A368013BA3601BB9AE
:1041200023682046DB689847284638BDFC7F0D0091
:1041300008B501F0BFF9034B1860BDE8084001F075
:104140008DBB00BFD4E7032003682BB142689342C4
:1041500002D2184603F02CBB0020704738B5056822
:10416000044645B143689D4205D2284603F07AFBD8
:10417000013005442560204638BD000038B50446AE
:104180000B46D0E901012568044A091A284401F0C8
:1041900085FB636801300344636038BDB8790D0066
:1041A00038B504460B46D0E901012568044A091ACE
:1041B000284401F073FB636801300344636038BD39
:1041C000BB790D0038B50D46C1B20320144602F08C
:1041D00076FCE9B2052002F072FCE1B20720BDE8EE
:1041E000384002F06CBC0000012208B511461046B0
:1041F000FFF7E8FF054B064800221A70BDE80840AB
:10420000044A4FF47A7101F06BB800BF24E3032035
:1042100000E40320C1400D0008B500234377006887
:1042200002F034FABDE8084001F0CFB82DE9F043C0
:104230008F188FB0B942CDE90517064689469046DA
:1042400080F0C28005A80D88FFF788FF03689F42B1
:1042500040F2BA8005980378412B49D1013003F030
:10426000A7FA052837DDFF2447F276239D4200F0A8
:10427000D38041D847F261239D4200F0A88047F2E5
:1042800064239D426BD046F670539D4241D1784DD8
:10429000784EDFF8F4810598874240F295800378E4
:1042A000412B4BD1013003F083FA052839DDFF247F
:1042B00005A8FFF753FFDDF814902946484603F0A0
:1042C000C7FA014600283DD1204602F0E7FB05A8C9
:1042D000FFF744FFDFE70598013003F069FA002893
:1042E000C1DB0598013003F063FA0E30C4B2BBE7BE
:1042F00005A8FFF729FFF9E747F264739D424FD005
:1043000047F276739D4200F0978047F261739D42B9
:104310006FD00023CDE9013302220092728B19463F
:104320003AE00598013003F043FA0028BFDB059816
:10433000013003F03DFA0E30C4B2B9E705A8FFF72B
:1043400003FFF9E73146484603F082FA28B14146B7
:10435000484603F07DFA0028B9D10121B4E70AAB41
:104360004549079307A810230025CDE90853FFF717
:10437000ADFE07A82146FFF701FF204602F0B8FB7B
:10438000014607A8FFF70CFF089BCDE90155013B4B
:104390000093079B2A461421304600F02DFB13E0C2
:1043A00005A8FFF7DBFE03689F420DD9A4B20121E7
:1043B000204602F073FB05A8FFF7C6FE011E18BFDA
:1043C0000121204602F07BFB0FB0BDE8F0830AAB71
:1043D000079307A8102329490025CDE90853FFF7C3
:1043E00075FE07A82146FFF7C9FE204602F093FBA1
:1043F000C6E705A8FFF7B2FE03689F42E4D9A4B25E
:104400000121204602F04AFB05A8FFF79DFE014668
:10441000204602F097FBD7E720468DF8284000F0B1
:10442000D5FF03460AA823B1154A934201D0984705
:10443000CAE700F0C8FFC7E705A8FFF78FFE059B96
:104440008DF81C40A3EB0901A8EB01012046CDE942
:104450000A310C9100F0C4FF03460AA907A823B152
:10446000084A934201D09847AEE700F0ADFFABE7B2
:10447000BF790D00C2790D00CA790D00CD790D000C
:10448000C7530D00C9530D00C6790D002DE9F04149
:104490008CB004AF044605220068391D01F004FC0D
:1044A000B8B3052804D000202037BD46BDE8F08110
:1044B000B7F80520130A43EA0223B7F80720A7F844
:1044C000053099B2130A43EA02231FFA83F8A7F8CA
:1044D00007300029E7D03B7923BB00F072FF02468A
:1044E000E060607FB7F80730C0B9B7F80510012960
:1044F00014D1092B0FD0C82B01D0042BD4D1012506
:1045000062612046657700F025FBFFF711FE00F0A1
:104510005CFF0120C8E703236377C5E7581F18BF76
:104520000120C1E7B8F5806F03D92046FFF774FE7C
:10453000EFE708F1080323F007036E46ADEB030D28
:1045400004AD20684246294601F0AEFB80454FF09D
:1045500000007FD1B7F80730E85400F032FF3B7914
:10456000E060142B00F0A68048D80F2B00F0A2804A
:1045700007D8022B48D0062B51D02046FFF74CFE1F
:1045800058E0112BF9D100233B70B7F807302B44CA
:104590009D42C7E903534DD207F10C00D5F80080C6
:1045A000FFF7DCFDFB68B7F807105D1B4D1BC7E983
:1045B00005357B68FD61C3F30F236383644B984526
:1045C00000F0BF8000F28C80A3F57F236FF40072AF
:1045D0001344984500F09D8079D8A3F50033063B3D
:1045E000984500F09C8003F50033033398456BD168
:1045F00007F11401384600F0E7FE65E0292B1BD0D7
:10460000372B17D01D2BB8D1637F43B901236377B4
:10461000204600F09FFAFFF78BFD00F0D6FE002346
:10462000C821B7F805200091CDE90133194620468D
:1046300000F0E2F901200DE0A3681BB9402001F071
:104640001DF9A060B7F80780A8444545C7E905589B
:1046500002D30020B54627E729464022A06803F090
:1046600009F9A368002583F83F5007F11400FFF70C
:1046700075FD036843451BD2786920B1BB69984238
:1046800014D203F099F885B2206801F0FFFF236887
:10469000A2685A631D870023637700F092FEA0F59D
:1046A0009C500838C4E903006061C3E72846EAE784
:1046B0005025E9E77B68B7F80720C3F30F2363832E
:1046C00029462046FFF7B2FD00236383B2E7214B62
:1046D0009845F9D107F11401384600F075FEF3E76B
:1046E0001D4B984521D003F19F6303F5003303F57B
:1046F000807398451FD003F16E4303F5302303F513
:1047000086739845E0D107F11401384600F05CFE4D
:10471000DAE707F11401384600F056FED4E707F156
:104720001401384600F050FECEE707F11401384678
:1047300000F04AFEC8E707F11401384600F044FED5
:10474000C2E707F11401384600F03EFEBCE700BFA7
:10475000766673006462670061636F6E2DE9F041F5
:1047600004468CB00D46FFF7E3FC637F022B00F09C
:10477000A880237F628B0133DBB223770AB1012546
:1047800016E0022BFBD8206801F09EFDB8B125B9D8
:10479000206801F021FF002811DD2046FFF776FE9A
:1047A00005460028F4D1206801F070FF00F00DFEEE
:1047B000237F013B237728460CB0BDE8F08100F051
:1047C00000FE0646206801F07FFD677F012F054649
:1047D00029D120B966612046FFF71EFDE8E7E368AE
:1047E0004FF21862F31A934204D92046FFF714FDE2
:1047F0000025DDE74AF6C872934203D82369F31A0D
:104800009342BCD9636941F27072F31A9342B6D9EC
:104810000023CDE9013300931A460621204600F01B
:10482000EBF86661ABE7002FA9D16269B21A40B11B
:1048300041F270739A42A2D9206801F027FF67778E
:10484000D6E741F288339A4299D9206801F01EFFD9
:10485000D4F800C0DCF834E0BCF83880BEF1000FBA
:104860000BD02B4642467146604601F06DFF431E59
:104870005D425D418DB966619AE7134B06930CF179
:1048800020070FCF07AD0FC53B682B70424673461C
:1048900006A9604601F025FEE9E763680593012655
:1048A0001846268302F0DEFF0022CDE90122059B97
:1048B000009032461D21204600F09EF82369636176
:1048C00076E7002577E700BF2C7F0D002DE9F0414A
:1048D00015468CB00446043540F6B8300F4698466D
:1048E00000F06DFD0FCD01AE0FC62B683370676011
:1048F00000F067FDA0F59C50083801AFC4E9030043
:1049000060610FCF07AE0FC63B68337007AF0FCFA4
:1049100025684FF0000CC5F834C0A5F83880203564
:104920000FC533682B70664644F24F67206801F06C
:10493000ADFE667700F045FD0546637F012B0CD088
:1049400000F03FFD401BB84204D800212046FFF78D
:1049500005FFF2E7637F012BE8D10CB0BDE8F081E1
:1049600010B588B0A2230093AC22EA23A72102A8A5
:1049700001F0ECFA42F2823302AA1A491A481B4C9F
:10498000FFF7A4FF0021122002F088F800210E207A
:1049900002F084F800210F2002F080F801210320AA
:1049A00002F07CF80121052002F078F801210720AF
:1049B00002F074F801F042FB4FF4165101F032FBA3
:1049C00002F0FEF80146204600F0FDFB204600F014
:1049D0008DFB074A07484FF47A7100F078FC08B065
:1049E00010BD00BFD0790D0098E30320FCE3032045
:1049F000D14C0D0000E403202DE9F04F83B000AF4F
:104A0000044600683D6B884616469946EB4601F021
:104A10005BFC00287FD0B8F11D0F04D84C4B23FA63
:104A200008F3DB0702D4637F012B74D146B9668B90
:104A300036B9238B01339BB2002B71D02383268B95
:104A4000A8F10C03082B16D8D4E90323934238BFEE
:104A5000134603F1420A00F0B4FCAAEB0000002860
:104A600060DB00212046FFF779FE00F0AAFCAAEBEC
:104A700000000028F5DAB9F1000F5AD06B1D7A6BEF
:104A8000002ABA6B08BF002203EB020A0AF10703EF
:104A900023F00703ADEB030DBB6BC7F804D0EA1896
:104AA000C2F3072376BA43EA02238DF80080ADF8FB
:104AB0000160ADF80330B9F1000F3CD0002D3AD0C1
:104AC0002A4649460DF1050002F088FE681D7B6B01
:104AD0003BB1BB6B2BB11A467B68796B184402F073
:104AE0007DFE002555452AD2AAEB05027B68206889
:104AF000B2F5806F28BF4FF48062591901F0CEFBE8
:104B00000646002000F05BFCBEB9206801F0BEFD47
:104B1000667700F05AFC0C37DD46BD46BDE8F08FE5
:104B200001238BE7217F0029A5D12046FFF716FE40
:104B3000A1E70523A3E70520C9E73544D2E703D061
:104B40002046FFF769FBE6E700F03BFC2061E2E767
:104B50004500002000B595B004AB00220193492325
:104B600000930292034B1121FFF746FF15B05DF849
:104B700004FB00BF657A0D0030B5ADF2244D08ABE3
:104B800000240546059305A84FF48063CDE906434C
:104B9000FFF79CFA069B013B0093CDE90144059B7E
:104BA00022460E212846FFF727FF0DF2244D30BD87
:104BB00008B50F4B1B68834206D38B4204D20D49C4
:104BC0000D48FFF7D9FF08BD0C4A126882420AD38C
:104BD0008A42F4D3834201D88B42F0D88242F2D881
:104BE0008A42F0D9EBE78342FAD88B42E7D8F7E75D
:104BF00020E30320F1790D0098E3032028E303204C
:104C000070B52DED028BB0EE408AF0EE608AADF506
:104C1000846D08AB002405460E46059305A84FF4A5
:104C200080631349CDE90643FFF750FA314605A8E2
:104C3000FFF7A4FADDE9063105980E4AC91A8DED91
:104C4000008B184400F02AFE431C06980344069388
:104C5000013B0093CDE90144059B224614212846DF
:104C6000FFF7CAFE0DF5846DBDEC028B70BD00BF71
:104C70001B7A0D001E7A0D00F0B5ADF2244D08AB85
:104C8000002405460F46059305A84FF480630E499E
:104C90001646CDE90643FFF719FA394605A8FFF78E
:104CA0006DFA314605A8FFF769FA069B013B0093B0
:104CB000CDE90144059B224610212846FFF79CFEC2
:104CC0000DF2244DF0BD00BF247A0D00000000005D
:104CD00010B50F202DED048B01F01DFFC11702F060
:104CE00039FA35A3D3E9002302F06AFA34A3D3E9F1
:104CF000002302F08FFB284B002202F0A9F8274B7B
:104D0000002202F05DFA41EC180B01F097F9B0EEC9
:104D1000480AF0EE680A022100F0AEFF01F08EF9B9
:104D20001F4900F0A5FE01F089F91E4B0446002240
:104D300051EC180B02F044FA1B4B002202F06AFB04
:104D40001A4B002202F086F841EC190B0221B0EE5A
:104D5000490AF0EE690A204600F08EFF01F06EF974
:104D6000134900F098FEB0EE480AF0EE680A1148C8
:104D70000121FFF745FFB0EE490AF0EE690A0D4840
:104D80000221FFF73DFF0B4802220121FFF774FFCC
:104D9000BDEC048B10BD00BF0000E03F0000594097
:104DA000277A0D000000224000001440000040401F
:104DB0002E7A0D0098E303206666666666660A40F2
:104DC0000000000000FEAF402DE9F0410021444802
:104DD000444EFFF7C3FC444800F0A6FA434800F0F5
:104DE00009F90446122001F083FE012829D1404B25
:104DF0001A7898462AB33368013344D10E2001F063
:104E00008AFE306001F01AF93A4900F031FE01F0F3
:104E100015F93568002D074633DA2D2100F02CFEF8
:104E200069420A22384600F040FE384600F027FE6C
:104E30000023314A2C4888F800304FF4FA7100F012
:104E40004FFA2E4B1B783BB13368A3423CD900226A
:104E500011460120FFF7B6F93368A34203D0284B6F
:104E60001B68A34203D127491D48FFF785FE264B47
:104E7000264A196811601C602046BDE8F041FFF722
:104E800097BE2946CDE71E4D2B680133D9D10E20A0
:104E900001F041FE286001F0D1F81D4900F0E8FD65
:104EA00001F0CCF82D68002D07460BDA2D2100F01B
:104EB000E3FD69420A22384600F0F7FD384600F06B
:104EC000DEFDBEE72946F5E70D4B1B68A34289BF0F
:104ED00000220021012110469CBF01220846B9E7AB
:104EE00098E3032020E3032000E40320FCE30320F5
:104EF0001CE30320327A0D00B5400D0024E30320AB
:104F000028E30320F1790D00F4E30320F8E3032004
:104F1000477A0D0038B5124D0021012000F022FC27
:104F2000284601F0FDFB05F11C0000F0CBFF00243A
:104F30000C4A0D496C6328462C8701F069FE0B4B27
:104F40000B489C61C3E90054C3E90244C3E904442B
:104F50009C8300F015F8BDE83840064800F05EB9C3
:104F6000B8E3032094E30320FD400D0098E3032001
:104F7000FCE3032000E403200368C9B29B681847E0
:104F8000704710B504466021006801F06FF9206891
:104F900001F074F9B0FA80F0400910BD38B505464B
:104FA0000C460068602101F061F928680368214619
:104FB0009B6898472868002101F05CF908B100203F
:104FC00038BD28680222602101F04DF92868036885
:104FD0001B6998470028F2D0286803685B699847E6
:104FE0000446286803685B699847E4B244EA0020F5
:104FF00080B2E5E70921FFF7D1BF0C21FFF7CEBF53
:1050000070B504460E4600686021154601F02EF981
:105010002068036831469B689847E9B22068FFF72B
:10502000ABFF290A2068FFF7A7FF206801F026F9E7
:10503000B0FA80F0400970BD70B504460D461646C2
:10504000FFF7ACFF00F47F4040EA06022946204605
:10505000BDE87040FFF7D4BF70B504460D46164654
:10506000FFF79CFFC0B240EA062229462046BDE871
:105070007040FFF7C5BF08B5FFF790FFC0F30720EA
:1050800008BD2DE9F04104469DF818700D4698467C
:1050900016466AB1FFF782FFC0B200EA080343EA8E
:1050A00007022946204636B1BDE8F041FFF7C4BFEC
:1050B000FFF7E1FFF1E7BDE8F041FFF7CDBFB1F544
:1050C000A07F07B50ED29F290ED84F298CBF402351
:1050D0000023009301223F230321FFF7D2FF03B0F7
:1050E0005DF804FBC023F4E78023F2E707B5002155
:1050F0000091FE230122FFF7C4FF03B05DF804FB1B
:10510000072907B50FD803290FD810D002290CBFE3
:105110000423002300930122F1230321FFF7B1FFB1
:1051200003B05DF804FB0E23F4E70C23F2E7082339
:10513000F0E707B5002300930122FE230321FFF7C8
:10514000A0FF03B05DF804FB07B50F298CBF08234F
:10515000002300930022F7230321FFF792FF03B0FF
:105160005DF804FB07B5022300930122EF2304211D
:10517000FFF787FF03B05DF804FBC72907B516D812
:10518000B32916D89F2916D88B2916D8772916D86F
:10519000632916D84A2994BF002101210091F823E0
:1051A00000220421FFF76DFF03B05DF804FB072127
:1051B000F4E70621F2E70521F0E70421EEE70321F9
:1051C000ECE70221EAE738B504460846216001F021
:1051D0001BF82046FFF7D5FE054610B900252846E6
:1051E00038BD2046FFF709FFB0F5C37FF6D1204652
:1051F000C821FFF7C2FF20462821FFF760FF2046A5
:105200000821FFF77DFF10212046FFF79DFF204674
:10521000FFF7A8FF2046FFF78CFFE0E74FF0FF33D2
:10522000C0F84032704770B5044600F0CAF8002557
:10523000064660192422002102F0DEFA6651243568
:10524000B5F5107FF5D10023C4F8403270BDD0F819
:1052500040220F2A034609DC00200433242202FBEB
:1052600000F1595821B101301028F8D14FF0FF302A
:1052700070472DE9F8439846D0F84032002B044699
:105280008946174601DAFFF7CEFF2046FFF7DFFF1A
:10529000051E19DBC7B124266E43A0199DF82030E6
:1052A0000373099B436101230377C0E90178C0F8C8
:1052B000109000F086F8A051D4F840320133C4F8C1
:1052C00040322846BDE8F8834FF0FF35F9E707B5CF
:1052D0000023CDE90033FFF7CCFF03B05DF804FBFA
:1052E00007B500234FF0010CCDE9003CFFF7C1FFEB
:1052F00003B05DF804FB0F2938B5044613D8D0F885
:10530000403283B1242202FB01F52844436853B1A3
:10531000002102F071FA00F054F86051D4F84032E4
:10532000013BC4F8403238BD2DE9F04105462C461A
:1053300000F047F805F510762B46002701214FF0C5
:10534000020C5A681F62A2B1D3F80080D3F810E0B3
:10535000A0EB080272450CD3B2FBFEF20EFB0282F8
:105360001A601A7F2AB1D3F814E0BEF1000F19D1E8
:1053700019622433B342E4D10026236A5BB1227B55
:105380006368D2B1A0689847236A022B03D13146E3
:105390002846FFF7B0FF0136102E04F12404ECD1AB
:1053A000BDE8F0819A699645E3D9013296459A6144
:1053B0008CBF0A4662461A62DBE79847E4E700F0D2
:1053C0009DBC00F077B870477047704703065ABF1E
:1053D000024B53F820000020704700BFB07A0D0048
:1053E00003065ABF024B53F820000020704700BF4D
:1053F000B07C0D0008B5024B1B689B68019308BD8B
:105400006802030008B5024B1B68DB68019308BD06
:105410006802030008B5024B1B685B68019308BD76
:105420002C02030008B5024B1B689B68019308BD62
:105430002C02030008B5024B1B68DB68019308BD12
:105440002C02030008B5024B1B681B69019308BDC1
:105450002C02030008B5024B1B685B69019308BD71
:105460002C02030008B5024B1B689B6A019308BD20
:105470002C02030008B5024B1B681B6B019308BD8F
:105480002C02030008B5024B1B689B6F019308BDFB
:105490002C02030008B5024B1B685B69019308BD31
:1054A0006C02030008B5024B1B685B68019308BDE2
:1054B0001802030008B5024B1B685B69019308BD25
:1054C0001802030008B5024B1B685B6C019308BD12
:1054D0004802030008B5024B1B689B6C019308BD92
:1054E0004802030008B5024B1B685B69019308BDC5
:1054F0006402030008B5024B1B681B6A019308BDD8
:105500006402030008B5024B1B689B6A019308BD47
:105510006402030008B5024B1B681B68019308BDB9
:105520003C02030008B5024B1B68DB68019308BD11
:105530003C02030008B5024B1B681B69019308BDC0
:105540003C02030008B5024B1B685B69019308BD70
:105550003C02030008B5024B1B689B69019308BD20
:105560003C02030008B5024B1B68DB69019308BDD0
:105570003C02030008B5024B1B681B6A019308BD7F
:105580003C02030008B5024B1B689B6A019308BDEF
:105590003C02030008B5024B1B68DB68019308BDA1
:1055A0002802030008B5024B1B689B69019308BDE4
:1055B0002802030008B5024B1B68DB69019308BD94
:1055C0002802030008B5024B1B681B6A019308BD43
:1055D0002802030008B5024B1B685B6A019308BDF3
:1055E0002802030008B5024B1B689B6A019308BDA3
:1055F0002802030008B5024B1B68DB6A019308BD53
:105600002802030008B5024B1B681B6B019308BD01
:105610002802030008B5024B1B685B6B019308BDB1
:105620002802030008B5024B1B681B6C019308BDE0
:105630002802030008B5024B1B681B6D019308BDCF
:105640002802030008B5024B1B689B69019308BD43
:105650003802030008B5024B1B68DB69019308BDE3
:105660003802030008B5024B1B681B6A019308BD92
:105670003802030008B5024B1B689B6A019308BD02
:105680003802030008B5024B1B681B6B019308BD71
:105690003802030008B5024B1B689B6B019308BDE1
:1056A0003802030008B5024B1B68DB69019308BD93
:1056B0003002030008B5024B1B681B6A019308BD4A
:1056C0003002030008B5024B1B681B68019308BD3C
:1056D0004C02030008B5024B1B685B68019308BDD0
:1056E0004C02030008B5024B1B681B69019308BDFF
:1056F0004C02030008B5024B1B685B69019308BDAF
:105700004C02030008B5024B1B689B69019308BD5E
:105710004C02030008B5024B1B68DB69019308BD0E
:105720004C02030008B5024B1B681B6A019308BDBD
:105730004C02030008B5024B1B681B6D019308BDAA
:105740006002030008B5024B1B685B68019308BD4B
:105750002002030008B5024B1B685B69019308BD7A
:105760002002030008B5024B1B68DB6A019308BDE9
:105770002002030008B5034B1B68D3F8883001935F
:1057800008BD00002002030008B5034B1B68D3F8D6
:105790009430019308BD00002002030008B5024BBD
:1057A0001B685B68019308BD4002030008B5024B0B
:1057B0001B689B68019308BD4002030008B5024BBB
:1057C0001B68DB68019308BD4002030008B5024B6B
:1057D0001B681B69019308BD4002030008B5024B1A
:1057E0001B685B69019308BD4002030008B5024BCA
:1057F0001B689B69019308BD4002030008B5024B7A
:105800001B68DB69019308BD4002030008B5024B29
:105810001B681B6A019308BD4002030008B5024BD8
:105820001B681B6B019308BD4002030008B5024BC7
:105830001B685B6B019308BD4002030008B5024B77
:105840001B681B6C019308BD4002030008B5024BA6
:105850001B685B6C019308BD4002030008B5024B56
:105860001B689B68019308BD4402030008B5024B06
:105870001B68DB6B019308BD4402030008B5024BB3
:105880001B681B68019308BD1C02030008B5024B8E
:105890001B685B68019308BD1C02030008B5024B3E
:1058A0001B68DB69019308BD1C02030008B5024BAD
:1058B0001B68DB6B019308BD1C02030008B5024B9B
:1058C0001B685B6C019308BD1C020300002240684A
:1058D0001146FFF79BBF002240681146FFF7A6BFA5
:1058E00040680022FFF79ABF4068002281F0010162
:1058F000FFF784BF002340681A461946FFF776BFBA
:10590000002340681A461946FFF768BF0022406826
:105910001146FFF75BBF002240681146FFF746BF04
:10592000406800220221FFF749BF002340681A4661
:10593000FFF734BF024B03225A60024A1A607047D5
:1059400044E60320B87E0D0010B5044608462170D9
:10595000FFF7A8FE00236360204610BD10B5044683
:10596000006818B1FFF792FF0023236010BD10B547
:105970000446FFF7F3FF204610BD000010B5094BA9
:10598000094C022200201A60084B2060A080A07100
:10599000A360FFF7D7FE2046054A0649BDE8104040
:1059A00001F036B958E603204CE603200000FFFF63
:1059B00094E303206F590D0070B586B0064601AD23
:1059C000684600F0CFFA0FCD341D0FC42B6823704A
:1059D000304606B070BD10B50446006808B1FFF748
:1059E00079FD204610BD10B58368044613B103222B
:1059F00001469847204610BD10B5064C00232046AE
:105A00002360FFF75FFD2046034A0449BDE81040CC
:105A100001F0FEB85CE6032094E30320D7590D00A3
:105A2000F8B506460D468F180024BD420CD03368E9
:105A300015F8011B9B6830469847031E01DB1C4488
:105A4000F3E7002C08BF1C462046F8BD13B50446FA
:105A5000084659B1019101F005FF23680199DB68FF
:105A60000246204602B0BDE81040184702B010BD03
:105A700008B5FFF7EBFF08BD03689B68184738B50A
:105A80000D210546FFF7F8FF0A2104462846FFF7D7
:105A9000F3FF204438BD38B50546FFF7D7FF04466D
:105AA0002846FFF7ECFF204438BD30B58BB000230B
:105AB0008DF82430012A98BF0A2209AC0D46B1FBAB
:105AC000F2F101FB125303F0FF03092B94BF3033B3
:105AD0003733DBB2AA4204F8013DEFD92146FFF784
:105AE000B5FF0BB030BD00002DE9F74F55EC104B62
:105AF00006460F4610EE102A10EE100A2B462946D5
:105B000001F0F8FD40B153493046FFF79FFF824650
:105B1000504603B0BDE8F08F25F000494E4B4FF0E2
:105B2000FF322046494601F0E5FD48B94A4B4FF0A7
:105B3000FF322046494601F0BFFD08B94749E3E777
:105B4000474B4FF060422046294601F0C9FD08B19D
:105B50004449D9E7444B4FF060422046294601F0C2
:105B6000A1FD0028F4D1002200232046294601F09F
:105B700099FDD0B12D213046FFF77EFF05F100439E
:105B800082461D463949DFF8EC904FF0000B0020AB
:105B90004FF000085FFA8BF39F4208D942464B460C
:105BA00001F038FC0BF1010BF4E78246EAE72246EC
:105BB0002B4601F04FF90D46044601F0D9FD804611
:105BC00001F084FA02460B462046294601F040F9CE
:105BD0000A2204460D4630464146FFF766FF8244DE
:105BE00027B123493046FFF731FF8244DFF8849024
:105BF0004FF00008013FFFB2FF2F89D042464B46CD
:105C00002046294601F0DCFA04460D4601F088FDE5
:105C1000B0F1000B1ADA2D213046FFF72DFFCBF142
:105C2000000103460A2230460193FFF73EFF019B25
:105C300018448244584601F059FA02460B46204661
:105C4000294601F005F904460D46D3E759460023DD
:105C5000E8E700BFF47E0D00FFFFEF7FF87E0D0048
:105C6000FFFFEF41FC7E0D00FFFFEFC10000E03FB2
:105C7000007F0D0000002440C9B2FFF735BF10B50A
:105C80000446FFF717FCE060236820465B699847ED
:105C9000002808DAFFF70EFCE368C01AA3689842F0
:105CA000F2D34FF0FF3010BDF8B506460D4617464B
:105CB0000024BC4207D03046FFF7E1FF031E02DBA1
:105CC0002B550134F5E72046F8BD002340681A46FD
:105CD0001946FFF783BD0000014B024A1A60704766
:105CE00060E60320027F0D00024B1A68024B1A6027
:105CF000704700BF2CE3032064E603200021FFF778
:105D000029BD10B50446FFF76EFE204610BD000009
:105D10000348044A04490023836000F079BF00BFB0
:105D200068E6032094E30320035D0D00014B186037
:105D3000704700BF30E3032008B50B4B43B100F0C0
:105D40007DF903681B699847002801DDAFF30080E7
:105D5000064B43B100F0F0F903681B69984700282F
:105D600001DDAFF3008008BD00000000000000006E
:105D700008B5FFF7E1FFFFF79DFB014B186008BD79
:105D8000D4E703200248034A0349121A01F026BD52
:105D900000F4032004F40320E0820D0007B5002383
:105DA00000931A466FF07701FFF7EEFC03B05DF841
:105DB00004FB000007B543880A2B08D0502B0BD1F9
:105DC000094B1B684BB103B05DF804EB1847FFF7B4
:105DD000E5FF03B05DF804FB002300931A466FF063
:105DE0007701FFF7D1FCF4E77CE6032038B5124CCD
:105DF0001248134D0021FFF761FD2368AB42114BA0
:105E00000CBF012200221A7002D0FFF7BBFF2560F1
:105E1000FFF748FB044601F0F7FC0B4B13B120469B
:105E2000AFF3008000210848FFF720FDBDE83840AF
:105E300006480021FFF79EBC00F403202D5D0D00F5
:105E40001E1C279A78E6032000000000B55D0D00B7
:105E5000704710B51821044600F0DFFE204610BD43
:105E6000F0B5037D062B8DB00E4600F104074FF010
:105E7000000412D000F1080515F8011D0A22304671
:105E8000FFF713FEAF42044419D0002CF4D02E21AA
:105E90003046FFF7F1FD0444EEE72F236A4639460A
:105EA0000A208DF80040FFF71DFB684601F0DAFC80
:105EB00033680246DB686946304698470446204608
:105EC0000DB0F0BD10B5054B0446112240F8043B5F
:105ED000002101F091FC204610BD00BF2C7F0D0079
:105EE0000346074A10B543F8042B01F1100251F89C
:105EF000044B43F8044B9142F9D10A781A7010BD53
:105F00002C7F0D00037D042B04D14068003818BF9E
:105F100001207047062B07D143683BB983682BB932
:105F2000C3681BB90069F1E7002070470120704782
:105F300010B59DF8084044EA032343EA024242EACE
:105F4000016104234160037510BD000037B5044DA5
:105F500005609DF818500095FFF7EAFF03B030BDCB
:105F60002C7F0D0013B5054B0360CB7800938B7825
:105F70004A780978FFF7DCFF02B010BD2C7F0D00D6
:105F800041747047704708B50021007CFFF7BAFBE9
:105F900040EAE07008BD08B50121007CFFF7B2FBC4
:105FA00040EAE07008BD08B5007CFFF7A3FB20EADB
:105FB000E07008BD08B5007CFFF794FB20EAE070B4
:105FC00008BD13B50446007C0191FFF793FB002840
:105FD000019901DC607C20B1207CFFF79BFB20EA6B
:105FE000E07002B010BD007CFFF79CBB10B514211F
:105FF000044600F012FE204610BD000010B54FF41C
:106000007A73044608460021C4E90113044B236057
:106010000123207463741146FFF754FB204610BD22
:10602000407F0D00007C0022FFF754BB10B5142206
:106030000446002101F0E0FB204610BD10B5104CD5
:1060400088B003A8FFF7F2FF2178BFF35B8F11F050
:10605000010111D120460191FEF723F8019958B1B1
:1060600003AA0848FFF7CAFF2046FEF71FF8064AB2
:106070000649044800F0CCFD024808B010BD00BF3E
:1060800080E6032084E6032094E30320855F0D006F
:1060900070474174704708B5007CFFF773FA20EA37
:1060A000E07008BD08B5007CFFF744FA20EAE07014
:1060B00008BD08B5007CFFF74DFA40EAE07008BD66
:1060C00008B5007CFFF73EFA40EAE07008BD007CAE
:1060D000FFF748BA37B5457C04462DB1207C03B0A4
:1060E000BDE83040FFF71EBA007C0191FFF74AFA85
:1060F00000280199F2DC284603B030BD10B5142108
:10610000044600F08AFD204610BD000010B54FF097
:10611000000C0446084611464FF47A72C4E901C2E5
:10612000044A22600122207462741A46FFF7F2F9D1
:10613000204610BD707F0D0013B50E4C2178BFF3C3
:106140005B8F11F0010112D120460191FDF7A9FFEB
:10615000019960B1084A094B0948FFF7D7FF20466B
:10616000FDF7A4FF074A0849054800F051FD04481F
:1061700002B010BD98E603209CE6032020E7032030
:10618000A4E7032094E3032091600D007047F8B565
:10619000064615460C468F18BC4206D0336814F8E4
:1061A000011B9B6830469847F6E72846F8BD007CFF
:1061B0000022FFF707BA007C0021FFF70BBA007C32
:1061C0000021FFF70FBA007C0021FFF713BA007C13
:1061D0000021FFF717BA10B51421044600F01DFD89
:1061E000204610BD10B54FF47A73044608460021CE
:1061F000C4E90113034B236020741146FFF712FA20
:10620000204610BDA07F0D000023007C1A461946D1
:10621000FFF7C0B97FB500221423CDE90122ADF804
:1062200004300B788DF808304B680393CB680493E7
:10623000007C0B7A059301A9FFF7FCF907B05DF824
:1062400004FB1FB5003B8DF800104FF06401039173
:1062500018BF0123694601928DF80830FFF7DAFF75
:1062600005B05DF804FB0123FFF7EBBF007C0022C3
:10627000FFF798B9007C0022FFF79CB90121FFF7D6
:10628000F9BF13B503688DF80710DC6B01224FF0DE
:10629000FF330DF10701A04702B010BD10B4036831
:1062A000DC6B4FF0FF33A4465DF8044B604713B539
:1062B000134602688DF80710D46B0DF10701012217
:1062C000A04702B010BD704738B543691A68002A6C
:1062D000054610DAB3F88620B3F884309A420AD122
:1062E00003681B699847044628B92B682846DB6A6F
:1062F0009847204638BD0120FCE743691868C04331
:10630000C00F704770470000064B994210B500F16E
:106310000C0405D0084600F085FC002808BF0024C6
:10632000204610BDEC7E0D0010B5AC21044600F0F7
:1063300074FC204610BDFDF7B2BE2DE9F0414FF0D0
:10634000000886B01D46C0F8048004460E46174675
:106350004146102202A801F04FFA6B1C09D04FF4FD
:106360007A70B5FBF0F3CDE9023800FB13535843C4
:106370000490606910230093006802AB41F20502AB
:1063800040F6FF71FFF75EF9002807DAFFF78EFA93
:1063900003686360002006B0BDE8F08160690023F7
:1063A00000683A463146FFF76DF9031EEEDB1846EA
:1063B000F1E7000038B584690A4B036005467CB1FB
:1063C0006368013B63605BB9236820469B6898471C
:1063D000A368013BA3601BB923682046DB6898478C
:1063E000284638BDFC7F0D0010B50446FFF7E2FFDC
:1063F00020461C2100F011FC204610BD70B54D69EF
:10640000054B04468C3544F8043B06460FCD0FC4BB
:106410002B682370304670BD2C7F0D0010B543698A
:10642000B3F88620B3F884309A42044605D06369F5
:10643000B3F884201344187910BD03681B6998478A
:106440000028F4D14FF0FF30F6E710B54369B3F8F8
:106450008620B3F884309A42044608D06369B3F8C2
:106460008420511CA3F884101344187910BD0368CC
:106470001B6998470028F1D14FF0FF30F6E7F8B5D7
:1064800043691746B3F88620B3F884309A4205462C
:106490000E4616D06969B1F88430B1F88640E41A26
:1064A000BC4228BF3C46043322461944304601F022
:1064B00095F96A69B2F884302344A2F88430204602
:1064C000F8BD03681B6998470028E3D14FF0FF34FB
:1064D000F5E742690023A2F884304269A2F88630C9
:1064E00070472DE9F0411F4603680C46DB6A8AB00D
:1064F000054616469847237DD5F81480042B0CBF1B
:1065000002200A2006220121FFF7C4F8C8F8000083
:106510006B691B68002B08DA2B682846DB6A0024AD
:10652000984720460AB0BDE8F0812846FFF7D1FF22
:10653000B7B1002303A9F8B20393ADF81030FEF70A
:10654000A9FF0028E8D1686906230093006803AB1F
:1065500041F20B0240F6FF71FFF774F80028DBD11F
:106560001C22002103A801F047F9237D042B1DD133
:106570004FF407733046ADF80C30FEF7C3FFADF8AB
:106580000E006068FEF7B6FF04906B691C22186865
:1065900003A9FFF767F80028BED104340FCC6D695A
:1065A0008C350FC523682B700124BAE740F61C23F5
:1065B0003046ADF80C30FEF7A5FF05AEADF80E0085
:1065C000231D04F1140718685968324603C20833C2
:1065D000BB421646F7D1D8E730B54269B2F88630EB
:1065E0008BB004462BB1B2F884209A4201D1FFF758
:1065F00070FF61690868002818DBB1F886507F2DAC
:1066000014D804310823C5F180022944FFF732F879
:10661000002813DD6369B3F886200AB9A3F8842043
:106620006369B3F886201044A3F886006369B3F861
:106630008600B3F88430C01A0BB030BDFFF736F9CE
:1066400003680B2BF2D0FFF731F903680B2BEDD069
:1066500020230025CDE90235FFF728F903680193CF
:10666000084B0949009302AA2B463220FFF762F833
:1066700063691868FEF7EEFF63694FF0FF321A6036
:10668000D4E700BFC77F0D00C07F0D0010B5436980
:1066900004461868002801DBFEF7DCFF63694FF051
:1066A000FF321A606069112200218C3001F0A4F8D9
:1066B0002046BDE81040FFF70CBF10B5002304468C
:1066C0000160C0F884308830FFF7FCFB204610BD25
:1066D00073B500234FF47A72C0E901320E4A0361A8
:1066E000026043610446AC200191FDF7D4FC051E15
:1066F00005F10C0608D00123C5E90133074B0199C8
:106700002B603046FFF7D9FF2046C4E90565FFF747
:10671000E0FE02B070BD00BFFC7F0D00E07F0D0009
:1067200010B54FF0FF310446FFF7D2FF204610BDF1
:1067300010B504460068002801DBFEF78BFF2046F9
:1067400010BD0C30FFF7F4BF2DE9F0439846036805
:1067500093B00D460024DB6A064617469847284644
:106760006B46224621460094FEF74CFE0546002863
:1067700063D1009B002B4BD05B69002B48D006A84F
:10678000FFF7A0FB009B5C696378022B04D1211DFD
:1067900006A8FFF711F926E00A2B24D11122294679
:1067A00001A801F029F8A368002B38D004F10803F0
:1067B0000DF1040C183418685968624603C2083396
:1067C000A3429446F7D1062301A90CA88DF81430F2
:1067D000FFF786FB0DF1340CBCE80F0007AC0FC4CB
:1067E000DCF80030237006A8FFF78CFB80B133681B
:1067F00007ADD3F82090124B0C930FCD0DAC0FC406
:106800002B6823703A4643460CA93046C8470546D4
:106810000098FEF7EFFD284613B0BDE8F083E3686B
:10682000002BC3D14FF6FF70D4F81090FEF762FE34
:106830008145BBD104F11401AAE72546E8E700BF72
:106840002C7F0D00002240681146FEF7BFBF0022DA
:1068500040681146FEF7DABF002240681146FEF795
:10686000E5BF40680022FEF7D9BF4068002281F0F2
:106870000101FEF7C3BF002340681A461946FEF720
:10688000B5BF002240681146FEF790BF4068002265
:106890000221FEF793BF002340681A46FEF77EBF31
:1068A000024B04225A60024A1A607047B8E703207C
:1068B00048800D00002340681A46FEF76FBF40680D
:1068C00000220221FEF77ABF002240681146FEF73F
:1068D0006DBF002240681146FEF778BF0023406874
:1068E0001A461946FEF77ABF002340681A46194631
:1068F000FEF77CBF40680021FEF7A0BF4068002182
:10690000FEF7A4BF4068002281F00101FEF776BFC8
:1069100040680022FEF782BF002240681146FEF761
:1069200085BF002240681146FEF770BF2DE9F04395
:10693000002495B016460D460746FFF7C3FA2146D8
:1069400018220EA8009400F057FF4023CDE90C3424
:1069500021466B460CAA3046FEF754FD044600283B
:106960004CD1024601216868FEF730FF02218046C3
:1069700022466868FEF72AFF009E81462146002EC7
:106980003CD000293AD17368022B03D00A2B11D0D6
:10699000F669F4E7B8F1000F0AD0716906A804316E
:1069A00007ADFFF7DFFA0FCD3C1D0FC42B68237036
:1069B0004146EDE7B9F1000F01D14946E8E77469B6
:1069C000102201A800F018FF06238DF8143001AD45
:1069D00004F108031834186859682A4603C20833BA
:1069E000A3421546F7D101A906A807ADFFF778FA2B
:1069F0000FCD3C1D0FC42B682370DEE70098FEF717
:106A0000F9FC384615B0BDE8F0830000024B034A9C
:106A10001A6000225A607047C0E7032084800D008E
:106A2000232813B502D9002002B010BDA0F10B033A
:106A3000022B1AD8174C2178BFF35B8F11F001019C
:106A40000BD120460191FDF72CFB019928B112488A
:106A5000FEF77AFF2046FDF729FB0F4B1878FEF76B
:106A600029FE0028DFD10120DEE7012809D800F047
:106A7000A7F80021007CFEF7CDFD80F00100C0B238
:106A8000D2E709380128EED8FFF756FB007CFEF765
:106A900071FDF2E7C8E70320CCE70320232838B5CF
:106AA00004460D460AD8FF2908D0FFF7B9FF28B1E0
:106AB00029462046BDE83840FEF7B4BC38BD38B59D
:106AC00004460D46FEF7B6FCFF2810D0062804D871
:106AD0004D2323FA00F0C30709D42046FFF7A0FF97
:106AE00028B129462046BDE83840FEF7ABBC38BD8A
:106AF00010B50446FEF79EFC031FDBB2012B08D93C
:106B00002046FFF78DFF20B12046BDE81040FEF77C
:106B1000A1BC002010BD0D2810B504469CBF0E344A
:106B2000A4B22046FFF77CFF50B103212046FEF7B8
:106B300071FC032804D12046BDE81040FEF79ABC42
:106B4000002010BD38B504460D46FFF769FFF0B1CF
:106B500004212046FEF75EFC042805D1A9B2204698
:106B6000BDE83840FEF77EBC02212046FEF752FC0D
:106B700002280CD12046FEF75DFC012801D0042834
:106B800005D129462046BDE83840FEF77BBC38BD1C
:106B900038B50023202543801423044603808560F4
:106BA00005610649284600F03AF804496060284625
:106BB00000F035F8E060204638BD00BFB8800D0019
:106BC00030B50F4D2978BFF35B8F11F0010487B00A
:106BD00013D12846FDF765FA78B101A8FFF7D8FF71
:106BE00001AA21460748FFF7FDFA2846FDF75EFA9D
:106BF000054A0649034800F00BF8024807B030BDCB
:106C0000D8E70320DCE7032094E303208D610D0027
:106C10000B460146184600F0D3BDFDF740BAFDF71C
:106C20003CBA0000014900F0F9B800BFD4800D0063
:106C30007FB500241023CDE90234036800949E69D7
:106C40008DF8044015466B461268B0479DF8043035
:106C500003F00603062B03BF009B2B600120204698
:106C600004B070BD0098904214BF01200620704708
:106C700010B5034B0360044600F0CDF8204610BD6C
:106C800014810D0010B50446FFF7F2FF20460821DD
:106C9000FFF7C3FF204610BD2DE9F0411F46DDE997
:106CA0000834DDF8188098450646154607D107993F
:106CB00000F0B4F818B165710020BDE8F0813946E4
:106CC000304600F0ABF80028F6D00123C4F800806D
:106CD0002571A371F0E738B515461C4600F09EF803
:106CE00020B10823E36006232560237138BD73B506
:106CF00005460C4601921E4600F090F850B9032E4E
:106D000008D82368019A5B692946204602B0BDE88D
:106D10007040184702B070BD10B5034B03600446C5
:106D2000FFF7A6FF204610BD74810D0010B5044684
:106D3000FFF7F2FF20460C21FFF76FFF204610BD42
:106D4000F7B5089F974205460E4614460AD0A86834
:106D500002680897156A31462246AC4603B0BDE882
:106D6000F04060471946019300F058F8019B002855
:106D7000EDD0062003B0F0BD2DE9F14F0D461946C8
:106D8000DDE90A4BDDE90CA681461746984600F07E
:106D900045F890B1002D3460377109DB61198A45DF
:106DA0000CBF06210121B171002001B0BDE8F08FB8
:106DB0000235F9D10123B371F6E7544506D159469E
:106DC000484600F02BF808B17771EDE7D9F80800D4
:106DD0000368CDE90CA6CDE90A4BDC693A46434687
:106DE0002946A44601B0BDE8F04F60472DE9F041C7
:106DF00007460C4615461E46FFF76DFF48B9B868B2
:106E000003689F692A4633462146BC46BDE8F041E7
:106E10006047BDE8F081704700207047814208B5A7
:106E20000ED0406803782A2B0CD049680B782A2BA7
:106E300008BF013100F00CFDB0FA80F0400908BD38
:106E40000120FCE70020FAE781F0004102E000BFEA
:106E500083F0004330B54FEA41044FEA430594EA1A
:106E6000050F08BF90EA020F1FBF54EA000C55EA55
:106E7000020C7FEA645C7FEA655C00F0E2804FEA26
:106E80005454D4EB5555B8BF6D420CDD2C4480EA08
:106E9000020281EA030382EA000083EA010180EA38
:106EA000020281EA0303362D88BF30BD11F0004F86
:106EB0004FEA01314FF4801C4CEA113102D04042BC
:106EC00061EB410113F0004F4FEA03334CEA1333F7
:106ED00002D0524263EB430394EA050F00F0A7800F
:106EE000A4F10104D5F1200E0DDB02FA0EFC22FA0A
:106EF00005F2801841F1000103FA0EF2801843FAFE
:106F000005F359410EE0A5F120050EF1200E012AEE
:106F100003FA0EFC28BF4CF0020C43FA05F3C0182C
:106F200051EBE37101F0004507D54FF0000EDCF1A5
:106F3000000C7EEB00006EEB0101B1F5801F1BD34E
:106F4000B1F5001F0CD349085FEA30004FEA3C0C52
:106F500004F101044FEA445212F5800F80F09A8048
:106F6000BCF1004F08BF5FEA500C50F1000041EB4C
:106F7000045141EA050130BD5FEA4C0C404141EB50
:106F80000101013C28BFB1F5801FE9D291F0000F4B
:106F900004BF01460020B1FA81F308BF2033A3F1FA
:106FA0000B03B3F120020CDA0C3208DD02F1140CF1
:106FB000C2F10C0201FA0CF021FA02F10CE002F12C
:106FC0001402D8BFC2F1200C01FA02F120FA0CFC25
:106FD000DCBF41EA0C019040E41AA2BF01EB04516E
:106FE000294330BD6FEA04041F3C1CDA0C340EDC6C
:106FF00004F11404C4F1200220FA04F001FA02F3AF
:1070000040EA030021FA04F345EA030130BDC4F16C
:107010000C04C4F1200220FA02F001FA04F340EA61
:107020000300294630BD21FA04F0294630BD94F012
:10703000000F83F4801306BF81F480110134013DF9
:107040004EE77FEA645C18BF7FEA655C29D094EA6A
:10705000050F08BF90EA020F05D054EA000C04BFE8
:107060001946104630BD91EA030F1EBF00210020D3
:1070700030BD5FEA545C05D14000494128BF41F072
:10708000004130BD14F580043CBF01F5801130BDD6
:1070900001F0004545F0FE4141F470014FF0000061
:1070A00030BD7FEA645C1ABF194610467FEA655C12
:1070B0001CBF0B46024650EA013406BF52EA0335B4
:1070C00091EA030F41F4002130BD00BF90F0000FA2
:1070D00004BF0021704730B54FF4806404F13204DE
:1070E0004FF000054FF0000150E700BF90F0000F97
:1070F00004BF0021704730B54FF4806404F13204BE
:1071000010F0004548BF40424FF000013EE700BF8D
:1071100042004FEAE2014FEA31014FEA02701FBF1D
:1071200012F07F4393F07F4F81F06051704732F04F
:107130007F4208BF704793F07F4F04BF41F40021A6
:10714000704730B54FF4607401F0004521F0004104
:107150001CE700BF50EA010208BF704730B54FF08E
:1071600000050AE050EA010208BF704730B511F08F
:10717000004502D5404261EB41014FF4806404F1C7
:1071800032045FEA915C3FF4D8AE4FF003025FEA4D
:10719000DC0C18BF03325FEADC0C18BF033202EBD1
:1071A000DC02C2F1200300FA03FC20FA02F001FA2B
:1071B00003FE40EA0E0021FA02F11444BDE600BFCE
:1071C00070B54FF0FF0C4CF4E06C1CEA11541DBF7D
:1071D0001CEA135594EA0C0F95EA0C0F00F0DEF848
:1071E0002C4481EA030621EA4C5123EA4C5350EA2D
:1071F000013518BF52EA033541F4801143F480137E
:1072000038D0A0FB02CE4FF00005E1FB02E506F00E
:107210000042E0FB03E54FF00006E1FB03569CF063
:10722000000F18BF4EF0010EA4F1FF04B6F5007F69
:1072300064F5407404D25FEA4E0E6D4146EB0606DB
:1072400042EAC62141EA55514FEAC52040EA5E5064
:107250004FEACE2EB4F1FD0C88BFBCF5E06F1ED80E
:10726000BEF1004F08BF5FEA500E50F1000041EB45
:10727000045170BD06F0004646EA010140EA0200F2
:1072800081EA0301B4EB5C04C2BFD4EB0C0541EA14
:10729000045170BD41F480114FF0000E013C00F329
:1072A000AB8014F1360FDEBF002001F0004170BD4D
:1072B000C4F10004203C35DA0C341BDC04F1140466
:1072C000C4F1200500FA05F320FA04F001FA05F2F2
:1072D00040EA020001F0004221F0004110EBD370BF
:1072E00021FA04F642EB06015EEA430E08BF20EAEB
:1072F000D37070BDC4F10C04C4F1200500FA04F38E
:1073000020FA05F001FA04F240EA020001F000411F
:1073100010EBD37041F100015EEA430E08BF20EA92
:10732000D37070BDC4F1200500FA05F24EEA020EDA
:1073300020FA04F301FA05F243EA020321FA04F009
:1073400001F0004121FA04F220EA020000EBD370C0
:107350005EEA430E08BF20EAD37070BD94F0000FC0
:107360000FD101F00046400041EB010111F4801FF4
:1073700008BF013CF7D041EA060195F0000F18BFA5
:10738000704703F00046520043EB030313F4801FE1
:1073900008BF013DF7D043EA0603704794EA0C0F9B
:1073A0000CEA135518BF95EA0C0F0CD050EA4106B1
:1073B00018BF52EA4306D1D181EA030101F000412E
:1073C0004FF0000070BD50EA410606BF1046194656
:1073D00052EA430619D094EA0C0F02D150EA013662
:1073E00013D195EA0C0F05D152EA03361CBF1046A3
:1073F00019460AD181EA030101F0004141F0FE4142
:1074000041F470014FF0000070BD41F0FE4141F4C5
:10741000780170BD70B54FF0FF0C4CF4E06C1CEAC5
:1074200011541DBF1CEA135594EA0C0F95EA0C0F7A
:1074300000F0A7F8A4EB050481EA030E52EA033535
:107440004FEA013100F088804FEA03334FF0805556
:1074500045EA131343EA12634FEA022245EA111583
:1074600045EA10654FEA00260EF000419D4208BF34
:10747000964244F1FD0404F5407402D25B084FEAE1
:107480003202B61A65EB03055B084FEA32024FF48D
:1074900080104FF4002CB6EB020E75EB030E22BFEA
:1074A000B61A754640EA0C005B084FEA3202B6EBAA
:1074B000020E75EB030E22BFB61A754640EA5C0059
:1074C0005B084FEA3202B6EB020E75EB030E22BFE9
:1074D000B61A754640EA9C005B084FEA3202B6EBEA
:1074E000020E75EB030E22BFB61A754640EADC00A9
:1074F00055EA060E18D04FEA051545EA16754FEA0B
:1075000006164FEAC30343EA52734FEAC2025FEA28
:107510001C1CC0D111F4801F0BD141EA00014FF0B7
:1075200000004FF0004CB6E711F4801F04BF014388
:107530000020B4F1FD0C88BFBCF5E06F3FF6AFAEA4
:10754000B5EB030C04BFB6EB020C5FEA500C50F134
:10755000000041EB045170BD0EF0004E4EEA1131B7
:1075600014EB5C04C2BFD4EB0C0541EA045170BDBE
:1075700041F480114FF0000E013C90E645EA060E02
:107580008DE60CEA135594EA0C0F08BF95EA0C0F30
:107590003FF43BAF94EA0C0F0AD150EA01347FF478
:1075A00034AF95EA0C0F7FF425AF104619462CE74F
:1075B00095EA0C0F06D152EA03353FF4FDAE1046B2
:1075C000194622E750EA410618BF52EA43067FF403
:1075D000C5AE50EA41047FF40DAF52EA43057FF493
:1075E000EBAE12E74FF0FF3C06E000BF4FF0010C9E
:1075F00002E000BF4FF0010C4DF804CD4FEA410C02
:107600007FEA6C5C4FEA430C18BF7FEA6C5C1BD0CE
:1076100001B050EA410C0CBF52EA430C91EA030F4F
:1076200002BF90EA020F0020704710F1000F91EAAC
:10763000030F58BF994208BF90422CBFD8176FEA7A
:10764000E37040F0010070474FEA410C7FEA6C5C48
:1076500002D150EA013C07D14FEA430C7FEA6C5C4F
:10766000D6D152EA033CD3D05DF8040B704700BF7B
:107670008446104662468C461946634600E000BFC9
:1076800001B5FFF7B7FF002848BF10F1000F01BD9B
:107690004DF808EDFFF7F4FF0CBF012000205DF866
:1076A00008FB00BF4DF808EDFFF7EAFF34BF0120EB
:1076B00000205DF808FB00BF4DF808EDFFF7E0FF84
:1076C00094BF012000205DF808FB00BF4DF808EDD5
:1076D000FFF7CEFF94BF012000205DF808FB00BF3C
:1076E0004DF808EDFFF7C4FF34BF012000205DF81E
:1076F00008FB00BF4FEA410C7FEA6C5C02D150EA04
:10770000013C0AD14FEA430C7FEA6C5C02D152EA99
:10771000033C02D14FF0000070474FF0010070476A
:107720004FEA410212F5001215D211D56FF47873A9
:10773000B3EB625212D94FEAC12343F0004343EA4C
:10774000505311F0004F23FA02F018BF4042704727
:107750004FF00000704750EA013005D111F00040B1
:1077600008BF6FF0004070474FF00000704700BF47
:107770004A0011D212F5001211D20DD56FF47873B0
:10778000B3EB62520ED44FEAC12343F0004343EA05
:10779000505323FA02F070474FF00000704750EA50
:1077A000013002D14FF0FF3070474FF000007047BA
:1077B0000A22002100F0ECB80A22002100F0E8B80B
:1077C00010B5054C13462CB10A4601460220AFF312
:1077D000008010BD2046FCE7000000000A449142F2
:1077E00000F1FF3300D1704710B511F8014B03F8D9
:1077F000014F9142F9D110BD02440346934200D19A
:10780000704703F8011BF9E738B50D4B1D68AB6BEA
:1078100004467BB91820FEF731F80A4A0A4BA863E0
:10782000C0E90023094B83600B23838101220023DD
:10783000C0E90423AB6B00221C615A6138BD00BF54
:1078400030E303200E33CDAB34126DE6ECDE0500E1
:1078500010F8012B11F8013B012A28BF9A42F7D0FA
:10786000D01A7047034613F8012B002AFBD1181ACF
:107870000138704710B50139034632B111F8014F94
:1078800003F8014B013A002CF7D11A44002193422E
:1078900000D110BD03F8011BF9E700002DE9F04706
:1078A0003A4E86468C4660461CF8014BA55D15F0A5
:1078B0000805F8D12D2C33D19CF800404FF0010879
:1078C00000F1020C002B5CD0102B0CD1302C0AD113
:1078D0009CF8000000F0DF0058284DD19CF80140D2
:1078E00010230CF1020C08F10047013F0026B7FB02
:1078F000F3F9304603FB197AA4F13005092D18D8A5
:107900002C46A34224DD751C07D081451DD301D12F
:10791000A2451ADB00FB034001261CF8014BEBE7F4
:107920002B2C08BF9CF80040A84608BF00F1020CB1
:10793000C8E7A4F14105192D01D8373CE1E7A4F1CE
:107940006105192D04D8573CDBE74FF0FF36E4E71B
:10795000731C06D12223CEF80030384642B9BDE868
:10796000F087B8F1000F00D04042002AF7D00EB1E6
:107970000CF1FF311160F2E73024002BB3D1082362
:10798000B1E7302CA4D00A23ADE700BFAE810D00D3
:1079900013460A46014602480068FFF77FBF00BF52
:1079A00030E3032021400D005D400D0085400D00B7
:1079B00089400D0000000000256900256C69006900
:1079C0006E006F75740070776D00647700617700EA
:1079D00067733063335A712D6F76626B70775031F5
:1079E000473770614F484B5F504866526A4E557337
:1079F00000546865206C69676874206C6576656CF6
:107A000020686173207061737365642074686520F9
:107A100073657420706F696E747300767700253219
:107A20002E3766007672002043202F2F200020463C
:107A30002000466972737420706F696E74207365DC
:107A40007420746F3A20005365636F6E6420706F0A
:107A5000696E742073657420746F3A2000626C6ED6
:107A60006B696E660076657200312E302E300068CC
:107A70002D6265617400343500627566662D696E2D
:107A8000003130323400646576005061727469638D
:107A90006C65006275696C64004A756C2020352045
:107AA000323032312030323A34393A343300000047
:107AB000C7530D00C7530D00C7530D00C7530D002A
:107AC000C7530D00C7530D00C7530D00C7530D001A
:107AD000C7530D00C7530D00C7530D00C7530D000A
:107AE000C7530D00C7530D00C7530D00C7530D00FA
:107AF000C7530D00C7530D00C7530D00C7530D00EA
:107B0000C7530D00C7530D00C7530D00C7530D00D9
:107B1000C7530D00C7530D00C7530D00C7530D00C9
:107B2000C7530D00C7530D00C7530D00C7530D00B9
:107B3000C7530D00C7530D00C7530D00C7530D00A9
:107B4000C7530D00C7530D00C7530D00C7530D0099
:107B5000C7530D00C7530D00C7530D00C7530D0089
:107B6000C7530D00C7530D00C7530D00C7530D0079
:107B7000C7530D00C7530D00C7530D00C7530D0069
:107B8000C7530D00C7530D00C7530D00C7530D0059
:107B9000C7530D00C7530D00C7530D00C7530D0049
:107BA000C7530D00C7530D00C7530D00C7530D0039
:107BB000C7530D00C7530D00C7530D00C7530D0029
:107BC000C7530D00C7530D00C7530D00C7530D0019
:107BD000C7530D00C7530D00C7530D00C7530D0009
:107BE000C7530D00C7530D00C7530D00C7530D00F9
:107BF000C7530D00C7530D00C7530D00C7530D00E9
:107C0000C7530D00C7530D00C7530D00C7530D00D8
:107C1000C7530D00C7530D00C7530D00C7530D00C8
:107C2000C7530D00C7530D00C7530D00C7530D00B8
:107C3000C7530D00C7530D00C7530D00C7530D00A8
:107C4000C7530D00C7530D00C7530D00C7530D0098
:107C5000C7530D00C7530D00C7530D00C7530D0088
:107C6000C7530D00C7530D00C7530D00C7530D0078
:107C7000C7530D00C7530D00C7530D00C7530D0068
:107C8000C7530D00C7530D00C7530D00C7530D0058
:107C9000C7530D00C7530D00C7530D00C7530D0048
:107CA000C7530D00C7530D00C7530D00C7530D0038
:107CB000C9530D00C9530D00C9530D00E9410D0012
:107CC000C9530D00C9530D00C9530D00C9530D0010
:107CD000C9530D00C9530D00C9530D00C9530D0000
:107CE000C9530D00C9530D00C9530D00C9530D00F0
:107CF000C9530D00C9530D00C9530D00C9530D00E0
:107D0000C9530D00C9530D00C9530D00C9530D00CF
:107D1000C9530D00C9530D00C9530D00C9530D00BF
:107D2000C9530D00C9530D00C9530D00C9530D00AF
:107D3000C9530D00C9530D00C9530D00C9530D009F
:107D4000C9530D00C9530D00C9530D00C9530D008F
:107D5000C9530D00C9530D00C9530D00C9530D007F
:107D6000C9530D00C9530D00C9530D00C9530D006F
:107D7000C9530D00C9530D00C9530D00C9530D005F
:107D8000C9530D00C9530D00C9530D00C9530D004F
:107D9000C9530D00C9530D00C9530D00C9530D003F
:107DA000C9530D00C9530D00C9530D00C9530D002F
:107DB000C9530D00C9530D00C9530D00C9530D001F
:107DC000C9530D00C9530D00C9530D00C9530D000F
:107DD000C9530D00C9530D00C9530D00C9530D00FF
:107DE000C9530D00C9530D00C9530D00C9530D00EF
:107DF000C9530D00C9530D00C9530D00C9530D00DF
:107E0000C9530D00C9530D00C9530D00C9530D00CE
:107E1000C9530D00C9530D00C9530D00C9530D00BE
:107E2000C9530D00C9530D00C9530D00C9530D00AE
:107E3000C9530D00C9530D00C9530D00C9530D009E
:107E4000C9530D00C9530D00C9530D00C9530D008E
:107E5000C9530D00C9530D00C9530D00C9530D007E
:107E6000C9530D00C9530D00C9530D00C9530D006E
:107E7000C9530D00C9530D00C9530D00C9530D005E
:107E8000C9530D00C9530D00C9530D00C9530D004E
:107E9000C9530D00C9530D00C9530D00C9530D003E
:107EA000C9530D00C9530D00C9530D00C9530D002E
:107EB00000000000000000002B590D0021590D00AA
:107EC00017590D000D590D0001590D00F5580D0001
:107ED000F5680D00FD680D00E9580D00E1580D0032
:107EE000D7580D00CD580D002D690D000000000081
:107EF000000000006E616E00696E66006F766600BD
:107F00002E006170700025592D256D2D2564542596
:107F1000483A254D3A2553257A0061736374696D9B
:107F2000650000000000000000000000615E0D0020
:107F3000515E0D00535E0D000000000000000000C7
:107F4000855F0D00ED5F0D00C35F0D00215A0D0030
:107F5000B55F0D00875F0D00975F0D00E75F0D00B7
:107F6000A75F0D00815F0D00000000000000000011
:107F700091600D00FD600D00D5600D00215A0D00CF
:107F8000A5600D00C1600D00B3600D00CF600D0055
:107F900093600D0097600D000000000000000000DD
:107FA0008D610D00D7610D00AF610D008F610D0077
:107FB000B7610D00BF610D00C7610D00CF610D00FD
:107FC000776972696E670072656376206572726F99
:107FD00072203D2025640000000000000000000029
:107FE00005630D0029630D0043670D0037630D0025
:107FF00009630D000000000000000000B5630D00E3
:10800000E9630D0083620D009D620D00D9650D00CE
:108010004B640D001D640D00C7620D00E3640D008C
:1080200049670D007F640D008D660D00C9620D006B
:10803000FB620D00AF620D003B630D00FD630D00A0
:10804000000000000000000097680D008D680D0022
:1080500083680D0045680D00CB5C0D0077680D004E
:10806000F5680D00FD680D006B680D0063680D007C
:1080700059680D004F680D002D690D0000000000CB
:1080800000000000B5680D00BF680D00C9680D0054
:10809000D3680D00DD680D00E9680D00F5680D007E
:1080A000FD680D0005690D0011690D0019690D00CD
:1080B00023690D002D690D0000537431395F537031
:1080C0005F6D616B655F7368617265645F74616742
:1080D0000000000014810D00B9800D0074810D00B6
:1080E000E8800D0098810D004E31305F5F63787835
:1080F000616269763131375F5F636C6173735F749E
:108100007970655F696E666F4500000000000000D1
:10811000DC800D00716C0D00856C0D00196E0D007A
:10812000196E0D00EF6C0D00316C0D00D76C0D0059
:10813000996C0D00656C0D0074810D0044810D007B
:10814000DC800D004E31305F5F6378786162697664
:108150003132305F5F73695F636C6173735F747931
:1081600070655F696E666F450000000000000000EA
:1081700038810D00196D0D002D6D0D00196E0D006B
:10818000196E0D00EF6C0D00316C0D00ED6D0D00E2
:10819000796D0D00416D0D0014810D00A0810D0061
:1081A000537439747970655F696E666F00002020C2
:1081B0002020202020202028282828282020202097
:1081C0002020202020202020202020202020881057
:1081D00010101010101010101010101010100404B7
:1081E00004040404040404041010101010101041BE
:1081F000414141414101010101010101010101012F
:1082000001010101010101010110101010101042C3
:1082100042424242420202020202020202020202FE
:1082200002020202020202020210101010200000DC
:10823000000000000000000000000000000000003E
:10824000000000000000000000000000000000002E
:10825000000000000000000000000000000000001E
:10826000000000000000000000000000000000000E
:1082700000000000000000000000000000000000FE
:1082800000000000000000000000000000000000EE
:1082900000000000000000000000000000000000DE
:1082A00000000000000000000000000000000000CE
:1082B000154F0D0035590D007D590D00F9590D0070
:1082C000D95C0D00E95C0D00115D0D00A1680D0089
:1082D0000D6A0D000000000000000000000000001A
:0482E000000000009A
:1082E40001000000FFFFFFFF01000000FFFFFFFF90
:1082F4001A7F0D0034E3032000000000000000009A
:108304000000000000000000000000000000000069
:108314000000000000000000000000000000000059
:108324000000000000000000000000000000000049
:108334000000000000000000000000000000000039
:108344000000000000000000000000000000000029
:08835400000000000000000021
:10835C00FFFFFFFF00000102030405060708090ADE
:10836C000B0C0D0E0F101112131415161718191AD9
:08837C001B1C1D1E1F20280020
:0483840078563412E1
:04000003D0004020C9
:00000001FF
